:020000040800F2
:1000000070060020910100085F0E0008990D00089D
:100010005D0E000887030008570F0008000000006D
:10002000000000000000000000000000E50E0008D5
:100030008903000800000000610E0008E70E0008B8
:10004000AB010008AB010008AB010008AB010008E0
:10005000AB010008AB010008AB010008AB010008D0
:10006000AB010008AB010008AB010008AB010008C0
:10007000AB010008AB010008AB010008AB010008B0
:10008000AB010008AB010008AB010008AB010008A0
:10009000AB010008AB010008AB010008AB01000890
:1000A00000000000AB010008AB010008AB01000834
:1000B000AB010008AB010008AB010008AB01000870
:1000C000AB010008AB010008AB010008AB01000860
:1000D000AB010008AB010008AB010008AB01000850
:1000E000AB010008AB010008AB010008AB01000840
:1000F000AB01000800F002F800F03AF80AA090E81E
:10010000000C82448344AAF10107DA4501D100F0D2
:100110002FF8AFF2090EBAE80F0013F0010F18BF65
:10012000FB1A43F001031847D40F0000F40F00003E
:10013000103A24BF78C878C1FAD8520724BF30C813
:1001400030C144BF04680C607047000000230024E5
:1001500000250026103A28BF78C1FBD8520728BFD7
:1001600030C148BF0B6070471FB51FBD10B510BD33
:1001700000F0CFF81146FFF7F7FF00F03FFF00F067
:10018000EDF803B4FFF7F2FF03BC00F0F5F8000050
:100190000948804709480047FEE7FEE7FEE7FEE71B
:1001A000FEE7FEE7FEE7FEE7FEE7FEE70448054957
:1001B000054A064B70470000550F0008F50000087F
:1001C00070000020700600207002002070020020E5
:1001D00053EA020C00F069802DE9F04B4FF0000665
:1001E000002B1FBFB3FA83F503FA05F424FA05F6D2
:1001F0005E4012BF1643B2FA82F502FA05F4C5F169
:1002000020051EBF22FA05FC44EA0C04203556EAFC
:10021000044C4FEA144418BF641C4FF000084FF020
:100220000009904271EB030C39D3002919BFB1FAD0
:1002300081F701FA07F6B0FA80F700FA07F6C7F17E
:1002400020071EBF20FA07FC46EA0C062037B6FB43
:10025000F4FCA7EB0507103F07F01F0BCBF12006BE
:100260000CFA0BFB2CFA06F644BFB3460026202FEF
:10027000A4BF5E464FF0000B5BEA060C08BF4FF0D0
:10028000010B19EB0B09ABFB027C48EB0608C01B0A
:1002900006FB02CC0BFB03CC71EB0C01C1E70B4658
:1002A000024641464846BDE8F08B13B54FF00000CA
:1002B0004FF00001AFF30080BDE81C4070474FF0E5
:1002C000000200B5134694469646203922BFA0E8A6
:1002D0000C50A0E80C50B1F12001BFF4F7AF0907B2
:1002E00028BFA0E80C5048BF0CC05DF804EB8900A3
:1002F00028BF40F8042B08BF704748BF20F8022BE6
:1003000011F0804F18BF00F8012B704770477047FD
:100310007047754600F02CF8AE4605006946534616
:1003200020F00700854618B020B5FFF73FFFBDE875
:1003300020404FF000064FF000074FF000084FF04C
:10034000000B21F00701AC46ACE8C009ACE8C009DD
:10035000ACE8C009ACE8C0098D46704710B504464A
:10036000AFF300802046BDE81040FFF70ABF000051
:10037000004870471000002001491820ABBEFEE77E
:10038000260002007047FEE77047000010B500220B
:100390008021084800F03CF92A2000F019FE0C20CA
:1003A00000F016FE012000F013FEBDE8104006200C
:1003B00000F00EBE0004024070B5044600F02EF9B5
:1003C0000546601C02D004484068044400F026F949
:1003D000401BA042FAD370BD000000202DE9F04F71
:1003E000DFF80C92002209F1040A012503240AF126
:1003F000040B85B00F260BF1040EF0E005FA02F7AE
:100400001CEA07037ED091F804C00CF0030CBCF189
:10041000010F02D0BCF1020F26D1D0F808C0CDF8F0
:1004200000C04FEA420C04FA0CF8CDF810C0DDF819
:1004300000C02CEA080CCDF800C0D1F80C80DDF823
:1004400010C008FA0CF8DDF800C048EA0C08C0F843
:100450000880D0F804C02CEA070C0F79C7F3001706
:10046000974047EA0C0747600F79FF43BF070ED05C
:10047000C7684FEA420804FA08FC27EA0C07D1F8DB
:1004800008C00CFA08FC4CEA070CC0F80CC00F7945
:1004900007F00307022F15D1D70800EB8707029753
:1004A0003F6A4FEA427C4FEADC6806FA08FC27EA1A
:1004B0000C07D1F810C00CFA08FC4CEA070C029F9C
:1004C000C7F820C007684FEA420804FA08FC27EA88
:1004D0000C0791F804C00CF0030C0CFA08FC4CEA71
:1004E000070CC0F800C04F6817F4403F76D0414F6A
:1004F000D7F800C04CF0010CC7F800C03F6807F007
:10050000010700E06AE000973B4F22F0030C6744CC
:100510000297BF684FEA827C4FEA1C7806FA08FC13
:1005200027EA0C07DFF8D4C0604502D14FF0000C79
:100530001DE0DFF8CCC0604502D14FF0010C16E0A1
:10054000DFF8C0C0604502D14FF0020C0FE0DFF8C9
:10055000B8C0604502D14FF0030C08E0DFF8ACC032
:10056000604502D14FF0040C01E04FF0050C0CFA8D
:1005700008FC4CEA070C029FC7F808C0D9F80070C5
:10058000CC46D1F804809F435FEAC83800D51F43AA
:10059000CCF80070DAF80070D446D1F804809F439C
:1005A0005FEA883800D51F43CCF80070DBF8007094
:1005B000DC46D1F804809F435FEAC82800D51F437A
:1005C000CCF80070DEF80070F446D1F804809F4348
:1005D0005FEA882800D51F43CCF80070521C0B68D6
:1005E0009C46D3407FF40AAF05B0BDE8F08F000011
:1005F0000004014020380240000001400000024099
:100600000004024000080240000C024000100240BA
:100610000AB1816170470904FBE700000148806866
:1006200070470000000000200248816842681144C1
:10063000816070470000002010B50024032000F006
:100640006BF80F2000F008F808B1012401E000F079
:1006500025F8204610BD000070B50E4E054600245A
:10066000706898B14FF47A71B1FBF0F00A490968EB
:10067000B1FBF0F000F07CFB40B9102D06D2002257
:100680002946501E00F028F8356000E0012420467D
:1006900070BD0000000000200C0000200D4808B5CF
:1006A000016841F000410160016801F000410091E2
:1006B000011F0A6842F001020A60096801F00101A5
:1006C0000091016841F080510160006800F08050A5
:1006D000009008BD24380240F0B40E4B1B680C4655
:1006E000C3F30223C3F10705042D00D90425191D06
:1006F000072901D2002300E0DB1E012606FA05F1DE
:10070000491E214099409E40761E16403143F0BC60
:1007100000F064BC0CED00E0064900F00702086838
:100720004FF6FF03184040EA0220034A10430860D6
:10073000704700000CED00E00000FA052DE9F047DD
:100740000E46050079D0DFF88481D8F8000000F06B
:100750000100B04214D2012E05D1D8F8001041F0AA
:100760000401C8F80010D8F8001021F0010131434D
:10077000C8F80010D8F8000000F00100B0425CD1C9
:100780002878534C800705D52068A96820F0F00030
:10079000084320602878C0075CD04D496868083954
:1007A00002281AD003281BD0096801281BD089050C
:1007B000002966DA216821F0030101432160FFF777
:1007C0002DFF6968074641F28830022914D00329B9
:1007D00020D0012981462AD038E009688903E7E75B
:1007E00009688901E4E78907E2E700BFFFF716FF20
:1007F000C11B494501D926E081462068C0F381002C
:100800000228F3D126E000BFFFF708FFC11B4945CE
:1008100001D918E081462068C0F381000328F3D194
:1008200018E000BFFFF7FAFEC11B49450BD820684E
:10083000C0F381000128F5D10CE022E0FFF7EEFEC5
:10084000C11B494502D90320BDE8F087206810F09C
:100850000C0FF3D1D8F80010404601F00101B1426D
:1008600011D9012E03D1016841F004010160016832
:1008700021F0010131430160006800F00100B04245
:1008800001D00120E0E72878400705D52068E96815
:1008900020F4E060084320602878000706D520682F
:1008A000296920F4605040EAC100206000F018F887
:1008B0002168084AC1F30311515CC8400649086029
:1008C00006480068BDE8F047FFF7C6BE003C02409E
:1008D00008380240E91000080C0000200000002049
:1008E00070B5154D2968154801F00C02042A0CD08A
:1008F000134C082A0AD00C2A0AD0281F0068C0F31B
:1009000042314FF40040491C884070BD204670BD04
:100910000C4AC1F38343D35CC1F381522968521C52
:10092000C90302D5A3FB040101E0A3FB00010023DE
:10093000FFF74EFC70BD0000083802400024F400B0
:1009400000366E01E01000082DE9F84F04007DD05C
:10095000FC480168006801F00C0700F4803620783C
:10096000F94DC00741D0082F12D00C2F02D1B6F597
:10097000803F0DD06068012811D008B1052818D03B
:10098000286820F480302860286820F4802009E05E
:100990002868800329D560680028D8D025E0286819
:1009A00040F480302860606890B1FFF737FE8046E1
:1009B0000AE0286840F480202860F0E7FFF72EFE68
:1009C000A0EB080064287BD828688003F6D50CE0EB
:1009D000FFF724FE804605E0FFF720FEA0EB0800AD
:1009E0006428F0D828688003F6D42078DFF85CB358
:1009F000DFF85C8380074FF001094FF0000A35D51E
:100A0000042F0AD00C2F00D13EB1E068F8B1C8F82D
:100A10000090FFF703FE06460BE0286880070BD521
:100A2000E068012812D107E0FFF7F8FD801B0228DB
:100A3000C9D828688007F7D5DBF80010226921F4AF
:100A4000F85141EA0221CBF800100FE077E1C8F835
:100A500000A0FFF7E3FD064605E000BFFFF7DEFD5F
:100A6000801B0228AFD828688007F7D42078C006FA
:100A700074D53FB1A069E0B3C8F82090FFF7CEFD70
:100A800006464AE02868800502D5A069002884D07F
:100A9000206ADBF800105E4601F46041884210D9FC
:100AA00000F0E0F90028BDD13068216A20F46040F0
:100AB00008433060217F306861F31F6030600FE0D1
:100AC00096E0316821F4604101433160217F306854
:100AD00061F31F603060206A00F0C4F90028A1D1E2
:100AE000216A4FF4004009EB51318840954909686B
:100AF00000E025E0974AC1F30311515CC8409649D4
:100B0000086096480068FFF7A7FD00286FD125E030
:100B1000FFF784FD801B02286AD828688005F7D576
:100B2000DBF80010226A21F460411143CBF8001079
:100B3000227FDBF8001062F31F61CBF800100DE09C
:100B4000C8F820A0FFF76AFD064604E0FFF766FD3F
:100B5000801B02284CD828688005F7D42078804E66
:100B6000000722D57F48616981B1C0F80090FFF786
:100B700055FD834606E000BFFFF750FDA0EB0B00DC
:100B8000022835D830688007F6D50EE0C0F800A0FE
:100B9000FFF744FD834605E0FFF740FDA0EB0B00A7
:100BA000022825D830688007F6D4207840076DD514
:100BB0006B484FF0000B10380068C0000BD4684839
:100BC0001038016841F08051016000684FF0010B5E
:100BD00000F08050009064480168C90514D4016891
:100BE00041F480710160FFF719FD009008E08DE08D
:100BF00079E000BFFFF712FD0099401A642872D80F
:100C000059480068C005F5D5A06801280AD008B188
:100C1000052811D0306820F480703060306820F4EE
:100C2000806002E0306840F480703060A068A8B155
:100C3000FFF7F4FC00900DE0306840F48060306015
:100C4000F0E700BFFFF7EAFC0099411A41F2883053
:100C500081425AD830688005F4D50EE0FFF7DEFCFB
:100C6000009007E0FFF7DAFC0099411A41F2883062
:100C700081424AD830688005F4D4BBF1000F05D01A
:100C800037481038016821F080510160606A58B31C
:100C90000C2F41D00228504605D0C8F86000FFF75D
:100CA000BDFC044634E04746C8F86000FFF7B6FCD8
:100CB000064604E0FFF7B2FC801B022825D828680E
:100CC0008001F7D4D4E90A1001431E48226B03685F
:100CD00023F47D031A4311430160C7F86090FFF7C6
:100CE0009DFC044607E010E040E000BFFFF796FCE3
:100CF000001B022809D828688001F7D536E000BF1C
:100D0000FFF78CFC001B022802D90320BDE8F88FF6
:100D100028688001F4D429E00128F7D00948006848
:100D2000A26A00F48031914209D1E26A00F47011A4
:100D3000914204D1216B00F44000884216D001207A
:100D4000E4E700000838024000380240043802405E
:100D500000004742E91000080C00002000000020BD
:100D60003438024080064742007000400020CDE742
:100D700010B5401EB0F1807F01D3012010BD4FF0AF
:100D8000E02460610F21601700F028F90020A061C5
:100D900007202061002010BDFEE7000070B50E4D59
:100DA000044600F0010201212846FFF731FCC4F39C
:100DB000400202212846FFF72BFCC4F380020421E5
:100DC0002846FFF725FCC4F3C0022846BDE8704062
:100DD0000821FFF71DBC000000000240F0B587B0FD
:100DE00014216846FFF76BFA1948016841F00101C8
:100DF0000160016801F001010591016841F0020103
:100E000001600068134E00F00200059000220F21DF
:100E10003046FFF7FDFB104F0022E0213846FFF778
:100E2000F7FB0F20009001250024CDE9015469460D
:100E300030460394FFF7D2FAE0200090CDE9015448
:100E4000694638460394FFF7C9FA07B0F0BD0000C1
:100E50001C3802400000024000040240FEE7FEE7AA
:100E60007047000038B51C49002309681B4A11F07F
:100E7000F00F23D118491C310C68E500184C03D53C
:100E8000216801F4C0540EE00D6845F080550D60F6
:100E90000D6805F08055009524680D6804F4C05471
:100EA00025F080550D60B4F5C05F07D1B0F5404F17
:100EB00004D11068012340F004001060106820F095
:100EC000010018431060106800F00100984201D042
:100ED000012038BD002038BD08380240003C0240E7
:100EE000007000407047FFF79FBB000010B592B044
:100EF00034216846FFF7E3F914210DA8FFF7DFF965
:100F00001348016821F4C05141F4006101601020D0
:100F1000009001200024CDE906044FF42040CDE9E3
:100F200008046846FFF710FD08B172B6FEE70F200F
:100F3000CDE90D040F94109400210DA81194FFF732
:100F4000FDFB002801D072B6FEE712B010BD000014
:100F5000007000407047FEE770B51C4E0D46044619
:100F6000002240213046FFF753FB2A46202130461D
:100F7000FFF74EFB2009FFF711FF0120FFF71CFAD6
:100F8000012280213046FFF743FB0120FFF714FACE
:100F9000002280213046FFF73BFB0120FFF70CFACF
:100FA00004F00F00FFF7FAFE012280213046FFF720
:100FB0002FFB0120FFF700FA002280213046FFF7C7
:100FC00027FBBDE870400120FFF7F6B9000402409E
:100FD0000021FFF7C1BF0121FFF7BEBF0907090EBE
:100FE000002804DB00F1E02080F80014704700F0D6
:100FF0000F0000F1E02080F8141D7047FFF71CFB84
:10100000FFF774FFFFF7EAFEFFF7C0F92B4E06F17A
:10101000100801250A20FFF7CFF90120FFF7D8FFBC
:101020008020FFF7D5FFC5F11007FCB204E0305D6A
:10103000FFF7D1FF641CE4B2102CF8D3C020FFF7F7
:10104000C7FFFCB206E000BF18F80400FFF7C3FFBB
:10105000641CE4B2102CF7D36D1CEDB2102DD9D95D
:1010600001240A20FFF7A8F90120FFF7B1FF04F1DE
:101070008000C0B2FFF7ACFF0025C4F1100704E008
:10108000705DFFF7A8FF6D1CEDB2AF42F8DC04F114
:10109000C000C0B2FFF79CFF002508E018F805006B
:1010A000FFF799FF0220FFF787F96D1CEDB2AF4201
:1010B000F4DC641CE4B2102CD3D9AAE7C0100008F9
:1010C00020202020CCDDCBD22031365332202020EE
:1010D00020204943204E524E55204D45504849202E
:1010E000030406080C101820300000000000000067
:1010F0000001020304060708090000001C11000893
:101100000000002010000000300100082C11000831
:1011100010000020600600004C01000810000000D4
:0C112000010000000000000068FF1F003C
:04000005080000F5FA
:00000001FF
